{
  "_format": "hh-sol-artifact-1",
  "contractName": "Lottery",
  "sourceName": "contracts/Lottery.sol",
  "abi": [
    {
      "inputs": [],
      "stateMutability": "nonpayable",
      "type": "constructor"
    },
    {
      "inputs": [
        {
          "internalType": "address",
          "name": "have",
          "type": "address"
        },
        {
          "internalType": "address",
          "name": "want",
          "type": "address"
        }
      ],
      "name": "OnlyCoordinatorCanFulfill",
      "type": "error"
    },
    {
      "anonymous": false,
      "inputs": [
        {
          "indexed": true,
          "internalType": "address",
          "name": "previousOwner",
          "type": "address"
        },
        {
          "indexed": true,
          "internalType": "address",
          "name": "newOwner",
          "type": "address"
        }
      ],
      "name": "OwnershipTransferred",
      "type": "event"
    },
    {
      "inputs": [
        {
          "internalType": "uint256",
          "name": "k",
          "type": "uint256"
        }
      ],
      "name": "end",
      "outputs": [],
      "stateMutability": "nonpayable",
      "type": "function"
    },
    {
      "inputs": [
        {
          "internalType": "uint256",
          "name": "k",
          "type": "uint256"
        }
      ],
      "name": "join",
      "outputs": [],
      "stateMutability": "nonpayable",
      "type": "function"
    },
    {
      "inputs": [],
      "name": "owner",
      "outputs": [
        {
          "internalType": "address",
          "name": "",
          "type": "address"
        }
      ],
      "stateMutability": "view",
      "type": "function"
    },
    {
      "inputs": [
        {
          "internalType": "uint256",
          "name": "requestId",
          "type": "uint256"
        },
        {
          "internalType": "uint256[]",
          "name": "randomWords",
          "type": "uint256[]"
        }
      ],
      "name": "rawFulfillRandomWords",
      "outputs": [],
      "stateMutability": "nonpayable",
      "type": "function"
    },
    {
      "inputs": [],
      "name": "renounceOwnership",
      "outputs": [],
      "stateMutability": "nonpayable",
      "type": "function"
    },
    {
      "inputs": [],
      "name": "request",
      "outputs": [],
      "stateMutability": "nonpayable",
      "type": "function"
    },
    {
      "inputs": [
        {
          "internalType": "uint256",
          "name": "k",
          "type": "uint256"
        }
      ],
      "name": "see",
      "outputs": [
        {
          "internalType": "address[]",
          "name": "",
          "type": "address[]"
        }
      ],
      "stateMutability": "view",
      "type": "function"
    },
    {
      "inputs": [
        {
          "internalType": "address",
          "name": "Catcoin_",
          "type": "address"
        }
      ],
      "name": "setCatcoin",
      "outputs": [],
      "stateMutability": "nonpayable",
      "type": "function"
    },
    {
      "inputs": [
        {
          "internalType": "address",
          "name": "wallet_",
          "type": "address"
        }
      ],
      "name": "setWallet",
      "outputs": [],
      "stateMutability": "nonpayable",
      "type": "function"
    },
    {
      "inputs": [],
      "name": "stake",
      "outputs": [],
      "stateMutability": "nonpayable",
      "type": "function"
    },
    {
      "inputs": [
        {
          "internalType": "uint256",
          "name": "amount_",
          "type": "uint256"
        },
        {
          "internalType": "uint256",
          "name": "timeStart_",
          "type": "uint256"
        },
        {
          "internalType": "uint256",
          "name": "timeEnd_",
          "type": "uint256"
        }
      ],
      "name": "start",
      "outputs": [],
      "stateMutability": "nonpayable",
      "type": "function"
    },
    {
      "inputs": [
        {
          "internalType": "address",
          "name": "newOwner",
          "type": "address"
        }
      ],
      "name": "transferOwnership",
      "outputs": [],
      "stateMutability": "nonpayable",
      "type": "function"
    },
    {
      "inputs": [
        {
          "internalType": "address",
          "name": "",
          "type": "address"
        }
      ],
      "name": "userStakeBool",
      "outputs": [
        {
          "internalType": "bool",
          "name": "",
          "type": "bool"
        }
      ],
      "stateMutability": "view",
      "type": "function"
    },
    {
      "inputs": [],
      "name": "withdraw",
      "outputs": [],
      "stateMutability": "nonpayable",
      "type": "function"
    }
  ],
  "bytecode": "0x60a0604052600880546001600160a01b031916732ca8e0c643bde4c2e08ab1fa0da3401adad7734d1790557f79d3d8832d904592c0bf9818b621522c988bb8b0c05cdc3b15aea1b6e8db0c15600955600a80546e01001e8480000300000000000030a16001600160901b031990911617905534801561007d57600080fd5b506008546001600160a01b0316610093336100be565b6001600160a01b03908116608052600854600780546001600160a01b0319169190921617905561010e565b600080546001600160a01b038381166001600160a01b0319831681178455604051919092169283917f8be0079c531659141344cd1fd0a4f28419497f9722a3daafe3b4186f6b6457e09190a35050565b608051610b646101306000396000818161038401526103c60152610b646000f3fe608060405234801561001057600080fd5b50600436106100ea5760003560e01c8063641ccd831161008c5780638db2f7de116100665780638db2f7de14610190578063deaa59df146101c3578063ea7a7aba146101d6578063f2fde38b146101f657600080fd5b8063641ccd8314610155578063715018a6146101685780638da5cb5b1461017057600080fd5b806327b65632116100c857806327b656321461012a578063338cdca11461013d5780633a4b66f1146101455780633ccfd60b1461014d57600080fd5b8063049878f3146100ef5780630ad24528146101045780631fe543e314610117575b600080fd5b6101026100fd366004610936565b610209565b005b610102610112366004610936565b610308565b610102610125366004610965565b610379565b610102610138366004610a2f565b610401565b61010261042b565b6101026104ec565b610102610551565b610102610163366004610a5f565b6105ba565b6101026106b3565b6000546040516001600160a01b0390911681526020015b60405180910390f35b6101b361019e366004610a2f565b60066020526000908152604090205460ff1681565b6040519015158152602001610187565b6101026101d1366004610a2f565b6106c7565b6101e96101e4366004610936565b6106f1565b6040516101879190610a8b565b610102610204366004610a2f565b610777565b3360009081526006602052604090205460ff16151560011461025e5760405162461bcd60e51b81526020600482015260096024820152686e6f74207374616b6560b81b60448201526064015b60405180910390fd5b6005818154811061027157610271610ad8565b9060005260206000209060050201600101544210156102be5760405162461bcd60e51b81526020600482015260096024820152681b9bdd081cdd185c9d60ba1b6044820152606401610255565b600581815481106102d1576102d1610ad8565b60009182526020808320600360059093020191909101805460018101825590835291200180546001600160a01b0319163317905550565b6103106107ed565b6005818154811061032357610323610ad8565b90600052602060002090600502016002015442101561036e5760405162461bcd60e51b81526020600482015260076024820152661b9bdd08115b9960ca1b6044820152606401610255565b61037661042b565b50565b336001600160a01b037f000000000000000000000000000000000000000000000000000000000000000016146103f35760405163073e64fd60e21b81523360048201526001600160a01b037f0000000000000000000000000000000000000000000000000000000000000000166024820152604401610255565b6103fd8282610847565b5050565b6104096107ed565b600180546001600160a01b0319166001600160a01b0392909216919091179055565b600754600954600a546040516305d3b1d360e41b8152600481019290925267ffffffffffffffff8116602483015261ffff68010000000000000000820416604483015263ffffffff600160501b820481166064840152600160701b9091041660848201526001600160a01b0390911690635d3b1d309060a4016020604051808303816000875af11580156104c3573d6000803e3d6000fd5b505050506040513d601f19601f820116820180604052508101906104e79190610aee565b600b55565b3360009081526006602052604090205460ff16156105355760405162461bcd60e51b81526020600482015260066024820152651cdd185ad95960d21b6044820152606401610255565b336000908152600660205260409020805460ff19166001179055565b3360009081526006602052604090205460ff1615156001146105a15760405162461bcd60e51b81526020600482015260096024820152686e6f74207374616b6560b81b6044820152606401610255565b336000908152600660205260409020805460ff19169055565b60056040518060a00160405280858152602001848152602001838152602001600480548060200260200160405190810160405280929190818152602001828054801561062f57602002820191906000526020600020905b81546001600160a01b03168152600190910190602001808311610611575b50505091835250506003805460209283015283546001818101865560009586529483902084516005909202019081558383015194810194909455604083015160028501556060830151805193949361068f939285019291909101906108bc565b5060808201518160040155505060035460016106ab9190610b07565b600355505050565b6106bb6107ed565b6106c5600061086c565b565b6106cf6107ed565b600280546001600160a01b0319166001600160a01b0392909216919091179055565b60606005828154811061070657610706610ad8565b906000526020600020906005020160030180548060200260200160405190810160405280929190818152602001828054801561076b57602002820191906000526020600020905b81546001600160a01b0316815260019091019060200180831161074d575b50505050509050919050565b61077f6107ed565b6001600160a01b0381166107e45760405162461bcd60e51b815260206004820152602660248201527f4f776e61626c653a206e6577206f776e657220697320746865207a65726f206160448201526564647265737360d01b6064820152608401610255565b6103768161086c565b6000546001600160a01b031633146106c55760405162461bcd60e51b815260206004820181905260248201527f4f776e61626c653a2063616c6c6572206973206e6f7420746865206f776e65726044820152606401610255565b8060008151811061085a5761085a610ad8565b6020026020010151600c819055505050565b600080546001600160a01b038381166001600160a01b0319831681178455604051919092169283917f8be0079c531659141344cd1fd0a4f28419497f9722a3daafe3b4186f6b6457e09190a35050565b828054828255906000526020600020908101928215610911579160200282015b8281111561091157825182546001600160a01b0319166001600160a01b039091161782556020909201916001909101906108dc565b5061091d929150610921565b5090565b5b8082111561091d5760008155600101610922565b60006020828403121561094857600080fd5b5035919050565b634e487b7160e01b600052604160045260246000fd5b6000806040838503121561097857600080fd5b8235915060208084013567ffffffffffffffff8082111561099857600080fd5b818601915086601f8301126109ac57600080fd5b8135818111156109be576109be61094f565b8060051b604051601f19603f830116810181811085821117156109e3576109e361094f565b604052918252848201925083810185019189831115610a0157600080fd5b938501935b82851015610a1f57843584529385019392850192610a06565b8096505050505050509250929050565b600060208284031215610a4157600080fd5b81356001600160a01b0381168114610a5857600080fd5b9392505050565b600080600060608486031215610a7457600080fd5b505081359360208301359350604090920135919050565b6020808252825182820181905260009190848201906040850190845b81811015610acc5783516001600160a01b031683529284019291840191600101610aa7565b50909695505050505050565b634e487b7160e01b600052603260045260246000fd5b600060208284031215610b0057600080fd5b5051919050565b80820180821115610b2857634e487b7160e01b600052601160045260246000fd5b9291505056fea2646970667358221220357ae12fb841187902f7ce765931a7728729c70a1605e7257bb942da7ccad10c64736f6c63430008120033",
  "linkReferences": {},
  "deployedLinkReferences": {}
}